:10000000BFEF03F0416775696C6172526F6472698A
:100010006775657A00003231353836303034390052
:1000200050726163746963612032000047616C67DC
:100030006120457874656E73696F6D65747269636C
:1000400061004772616D6F733D256600EA6A200E9C
:10005000E96EEF5007E0A50E006E002EFED70000FF
:10006000EF2EF9D7120027B002D08C9601D08C86E3
:10007000959627B202D08C9801D08C88959827B499
:1000800002D08C9A01D08C8A959A27B602D08C9C8B
:1000900001D08C8C959C00008C84959400008C94ED
:1000A00095941200286A9586000E83B6010E2812D8
:1000B0009588000E83B8010E006ED890003600506F
:1000C0002812958A000E83BA010E006E00360036A3
:1000D000FC0E001600502812958C000E83BC010EF9
:1000E000006E003600360036F80E0016005028125A
:1000F00028C001F0120095869588958A958C8C828F
:10010000959200008C8495940000CCDF01C027F00C
:100110008C94959400008C849594C4DF01C026F0E3
:100120008C94959495969598959A959C2738006E01
:10013000F00E001600502610016EA5EF00F0959409
:10014000959095928C909590D6D701C026F001BEDF
:10015000FBD7245202E18C9001D08C809590000056
:100160008C92959200008C9495942538266E0F0EF3
:10017000261626C027F077DF25500F0B266E276E38
:1001800072DF1200280E136E0C0E146E010E156E27
:10019000060E166E8C9495948C9095908C929592F8
:1001A00095969598959A959C9594959095920F0E05
:1001B000206E4CDF010E126E1250030808E3030E8E
:1001C000276E51DF050E206E41DF122AF5D7020E91
:1001D000276E49DF050E206E39DF126A12500308C0
:1001E0000DE3036A1250130FE96E000E0320EA6E4E
:1001F000EFCF25F0246AA3DF122AF0D7DFEF03F058
:10020000212C01D003D0400E226E01D0226A010EB3
:10021000205C222622508009236E246A256E8FDFFF
:1002200012001F50070A07E00B0A0AE0060A10E056
:10023000020A14E018D0010E206E216EE1DF18D002
:10024000246A010E256E7BDF020E206EFFDE10D0C9
:10025000010E206E020E216ED3DF0AD0246A100E2A
:10026000256E6DDF05D0010E246E1FC025F067DFFF
:1002700012000900F5520CE0F6CF12F0F7CF13F0A0
:10028000F5CF1FF0CEDF12C0F6FF13C0F7FFF1D796
:100290001200B60E006E036A026A016A1250131051
:1002A0001410151002E1006A0DD0D89001BE09D0DB
:1002B0001236133614361536033602360136002E42
:1002C000F4D7019E3CEF04F01F50D8B471D0006EFB
:1002D0002350D8B46DD0002604E3810E002668E2D6
:1002E00004D07F0E005E64E363E020C027F024505A
:1002F000271A208E248E22502602F4CF29F0215076
:100300002502F4CF03F0F3CF28F02602F35029267C
:10031000F4502822000E032222502502F3502926F1
:10032000F4502822000E026A0322022220502602E4
:10033000F3502826F4500322000E022220502502FA
:10034000F3500326F4500222000E016A01222250CB
:100350002402F3502826F4500322000E0222012228
:1003600021502402F3500326F4500222000E0122F1
:1003700020502402F3500226F4500122002A01BE2C
:1003800005D028360336023601360006000E28AEA8
:100390000AD0032A02220122015005E1025003E1A2
:1003A000035001E1002A27BE018E27AE019E04D032
:1003B000006A016A026A036A12001650D8B4A5D016
:1003C000226E1A50D8B4A1D0225E05E37F0E2226F9
:1003D000D8B09BD006D0810E225ED8A096D0D8B4DB
:1003E00094D022C000F0016A026A036A216A17C031
:1003F00020F0208E18C01FF019C01EF0190E226EBA
:100400001D501E5E0DE2010E1F5E0AE2205E08E234
:10041000215E06E2212A202A1F2A1D501E2628D0EE
:100420001C501F5E12E2010E205E0FE2215E0DE203
:10043000212A202A1C501F261D501E2619E31F2A80
:1004400017E1202A15E1212A13D01B508009205ED4
:100450000EE2010E215E0BE2212A1B5080092026AC
:100460001C501F26E9E3202AE7E1212AE5D7038073
:10047000222E01D00BD0D8901E361F3620362136C2
:10048000D8900336023601362336BAD723A006D0D9
:10049000D890013202320332233202D0000635E016
:1004A00023BE1ED0D8901E361F36203621361D5052
:1004B0001E5E07E2010E1F5E04E2205E02E2215E84
:1004C0001AE31C501F5E05E2010E205E02E2215E6F
:1004D00012E31B508009205E03E2010E215E0BE354
:1004E000032A09E1022A07E1012A05E1002A0DE0B9
:1004F00001320232033217C022F01B50221A22AE00
:1005000002D0018E06D0019E04D0006A016A026A00
:10051000036A6BEF04F00900F6CF13F0F7CF14F085
:10052000F5CF1FF07EDE13C0F6FF14C0F7FF122ECA
:10053000F2D77EEF04F01F50B6081F6E036A20C08A
:1005400023F0208ED8902032213222320332023220
:10055000013200321F2EF6D723AE0BD0001E011E33
:10056000021E031E002AD8B4012AD8B4022AD8B425
:10057000032A29EF03F0D8B203D0EA6A270EE96E06
:10058000006A016A026A036A276A286A296A2A6A73
:1005900026502510241023102CE0200E2B6ED8900E
:1005A0001F362036213622362736283629362A3677
:1005B00026502A5C08E12550295C05E12450285C7E
:1005C00002E12350275C0FE32350275E2450D8A07C
:1005D000243C285E2550D8A0253C295E2650D8A072
:1005E000263C2A5ED88000360136023603362B2E92
:1005F000D6D727C0EFFF28C0ECFF29C0ECFF2AC0E8
:10060000ECFF1200E950176E1650196E19E015C074
:1006100022F014C021F013C020F012C01FF0266A8F
:10062000256A200E246E820E236E4EDE03C015F066
:1006300002C014F001C013F000C012F0192EE7D769
:1006400015C022F014C021F013C020F012C01FF01A
:1006500072D703C015F002C014F001C013F000C03F
:1006600012F015AE0DD01706178A121E131E141E97
:10067000151E122AD8B4132AD8B4142AD8B4152AAD
:100680003B0E1E6E9A0E1D6ECA0E1C6E1B6A0A0E63
:10069000196E1650D8B4172AD882EA6A120EE96E7B
:1006A00015C022F014C021F013C020F012C01FF0BA
:1006B0001EC026F01DC025F01CC024F01BC023F076
:1006C0005ADF015000520FE11628195C0CE0175058
:1006D0000CE00F0B195C01E037E217BE35D017BCF8
:1006E00004D0200E2DD0200E171617AA0CD0179A62
:1006F0001650D8A417060050176E2D0E1F6E91DDF0
:100700001750006E176A1650195C0AE10050176EF8
:100710002E0E1F6E86DD1750006E200E1716000E6F
:10072000300E17AA0DD0179A1650D8A417060050ED
:10073000176E2D0E1F6E75DD1750006E176A300E86
:10074000002600C01FF06DDDD8921EC022F01DC033
:1007500021F01CC020F01BC01FF0266A256A246A05
:100760000A0E236E08DF03C01EF002C01DF001C098
:100770001CF000C01BF0192E8FD78BEF04F0F86A25
:10078000D09E076A066A056A046A0B6A0A6A096AE1
:10079000086A0F6A0E6A0D6A0C6A116A106AC15003
:1007A000C00B0F09C16E070EB46EC050C00B050917
:1007B000C06EC08EC280C150C00BC16EE3D40C0E9F
:1007C0001F6E2FDD010E206E216E1ADD040EF66EF7
:1007D000000EF76E4EDD050E206E020E216E10DD4E
:1007E000160EF66E000EF76E44DD0C0E126EFA0E4B
:1007F000206E2CDC122EFBD70C0E1F6E12DD040EA9
:10080000206E010E216EFCDC200EF66E000EF76EDF
:1008100030DD020E206E216EF3DC2C0EF66E000E23
:10082000F76E27DD0C0E126EFA0E206E0FDC122E04
:10083000FBD70C0E1F6EF5DC000E016EC250C30B11
:100840000110C26E030E006E002EFED7C282C2B22D
:10085000FED7C3CF08F0C4CF09F00A6A0B6A030EB3
:10086000006E002EFED70BC015F00AC014F009C0B0
:1008700013F008C012F00DD503C007F002C006F057
:1008800001C005F000C004F0226A216A7A0E206ED1
:10089000880E1F6E07C026F006C025F005C024F0A4
:1008A00004C023F011DD03C015F002C014F001C034
:1008B00013F000C012F003C019F002C018F001C01C
:1008C00017F000C016F01D6A800E1C6E3B0E1B6EEA
:1008D000880E1A6E72D503C00FF002C00EF001C070
:1008E0000DF000C00CF0010E206E216E89DC420E6E
:1008F000F66E000EF76E070E126E0DD6890EE96EBB
:100900000FC015F00EC014F00DC013F00CC012F0A3
:10091000020E166E77D6030E006E002EFED78CD711
:020920000300D2
:020000040030CA
:0E0000003FC03E1E0087A1000FC00FE00F4062
:00000001FF
;PIC18F4550
;CRC=35BE  CREATED="07-dic-20 15:17"
